:020000040000FA
:1000000078E50120099A030079300600F59903008C
:10001000F5990300F5990300F5990300000000002D
:10002000000000000000000000000000699B0300C9
:10003000F599030000000000119B0300F5990300EF
:10004000359D0300F77B0600359D0300359D0300B9
:10005000359D0300359D0300359D0300359D03004C
:100060000D7C0600359D0300359D0300E17B0600F5
:10007000359D0300359D0300359D0300359D03002C
:10008000359D0300359D0300359D0300359D03001C
:10009000359D0300359D0300359D0300359D03000C
:1000A000359D0300359D0300359D0300359D0300FC
:1000B000359D0300359D0300359D0300359D0300EC
:1000C000359D0300359D0300359D0300359D0300DC
:1000D000359D0300359D0300359D0300359D0300CC
:1000E000359D0300359D0300359D0300359D0300BC
:1000F000359D0300359D0300359D0300359D0300AC
:1001000080EA101404F0F01480EA0410604081EAE0
:10011000111404F0F01481EA0411614082EA12140F
:1001200004F0F01482EA0412624083EA131404F02B
:10013000F01483EA0413634080EA102404F47F443B
:1001400080EA0420604081EA112404F47F4481EABB
:100150000421614082EA122404F47F4482EA0422EA
:10016000624083EA132404F47F4483EA0423634057
:1001700081EA500404F0553480EA4400614083EA87
:10018000520404F0553482EA4402634082EA900447
:1001900004F0333480EA8400624083EA910404F07E
:1001A000333481EA84016340704700BF82EA9004DF
:1001B00004F0333480EA8400624083EA910404F05E
:1001C000333481EA8401634081EA500404F05534F9
:1001D00080EA4400614083EA520404F0553482EA24
:1001E0004402634080EA102404F47F4480EA04203F
:1001F000604081EA112404F47F4481EA04216140D3
:1002000082EA122404F47F4482EA0422624083EAF0
:10021000132404F47F4483EA0423634080EA101427
:1002200004F0F01480EA0410604081EA111404F034
:10023000F01481EA0411614082EA121404F0F0140F
:1002400082EA0412624083EA131404F0F01483EA91
:1002500004136340704700BF2DE9F14F94464FEA05
:10026000930B8A68CB6808684968FFF749FF0BF170
:10027000060E33E083EA134480EA134582EA13470B
:1002800046BA96EA3444604000F00F1684EA063419
:1002900020F00F1684EA161054BA94EA0106724050
:1002A00002F00F1486EA043622F00F1486EA1412C4
:1002B0004CBA6540694001F00F1485EA043521F01D
:1002C0000F1485EA14115CBA67407B4003F00F14E9
:1002D00087EA043723F00F1487EA1413BCE8F00010
:1002E0006040694072407B4000F0E03400F010351F
:1002F00000F00F3040EA540040EAC50080EA900464
:1003000004F0332480EA8400604001F0E03401F01E
:10031000103501F00F3141EA540141EAC50181EA8B
:10032000910404F0332481EA8401614002F0E03456
:1003300002F0103502F00F3242EA540242EAC502DE
:1003400082EA920404F0332482EA8402624003F0D9
:10035000E03403F0103503F00F3343EA540343EA6B
:10036000C50383EA930404F0332483EA84036340DF
:1003700081EA324787EA134581EA354690EA060466
:1003800084EA034B82EA1B4280EA044484EA05447F
:1003900083EA144A85EA14448BEA044B84EA37441E
:1003A00081EA0B4181EA164104EA0A00454082EAEB
:1003B00004082BEA080041408AEA0B0602EA06001C
:1003C00084EA34438AEA3A4603EA0607784045401D
:1003D000414088EA38478BEA3B4007EA000985EA52
:1003E000090583EA0709464006EA0906714085EADD
:1003F000010005EA3546464006EA314181EA3041CE
:1004000081EA364606EA304686EA3546344008EA4E
:10041000010886EA01052A4086EA364003405A4030
:1004200081EA31431F407C4080EA030709EA07095B
:1004300088EA0908544088EA020806EA0A0601EA3E
:100440000B018AEA0B0215408AEA3A421040454005
:100450008BEA3B4003405E404240174079404D40AC
:100460004E40E443F64386EA18435D4085EA054082
:1004700083EA134386EA034183EA384284EA11435C
:1004800083EA04435FEA3343BEF1010E3FF6F2AE66
:100490001ED4BCE8F0006040694072407B4020BC44
:1004A000FFF784FE28606960AA60EB60BDE8F08F0A
:1004B0002DE9E0414FF2F00280EA1031114080EA6C
:1004C0000130484041088208C3084FF0000E4FE752
:1004D00000F0113001F0113102F0113203F011334C
:1004E00040EA410040EA820040EAC3004FF2F002D5
:1004F00080EA1031114080EA01304840BDE8E081D7
:100500002DE9F04F02F11C050646074600EB850871
:1005100051F8040B043A46F8040BF9D14FF0010CE2
:10052000FFF7C6FF5FEA302080EA0C001ECF414093
:100530004A4053405C401EC62000464517D04FEA53
:100540004C0C1CF4807F18BFACF1E50C2C2DE7D0CF
:100550003C2D06D1FFF7ACFF06CF41404A4006C60E
:10056000100006CF41404A4006C61000D8E736E9E1
:100570000F00FFF7C5FD043D86E80F00F7D1BDE889
:10058000F08F00BF2DE9F14F03F11C0402EB840C46
:100590004FEA930B8A68CB6808684968FFF7B0FD9B
:1005A0003CE9F0006040694072407B400BF1060E70
:1005B0004EE083EA134480EA134582EA134746BAC1
:1005C00096EA3444604000F00F1684EA063420F0C6
:1005D0000F1684EA161054BA94EA0106724002F02B
:1005E0000F1486EA043622F00F1486EA14124CBA6D
:1005F0006540694001F00F1485EA043521F00F14BD
:1006000085EA14115CBA67407B4003F00F1487EA57
:10061000043723F00F1487EA141344BA44404DBA48
:100620004D4056BA56405FBA5F4087EA174886EA9F
:10063000174B84EA17464FEA38488BEA1B4485EA91
:100640001B4788EA1B4580EA3440694072407B4082
:1006500000F0703400F0803500F00F3040EA4400C4
:1006600040EAD50080EA900404F0332480EA840054
:10067000604001F0703401F0803501F00F3141EA43
:10068000440141EAD50181EA910404F0332481EA6E
:100690008401614002F0703402F0803502F00F32C4
:1006A00042EA440242EAD50282EA920404F0332488
:1006B00082EA8402624003F0703403F0803503F074
:1006C0000F3343EA440343EAD50383EA930404F077
:1006D000332483EA84036340C943DB4381EA000493
:1006E00083EA044686EA020183EA014382EA33454B
:1006F00083EA14435C4084EA00077FEA040A8AEA3A
:10070000024A8AEA010B87EA11488AEA374A80EAF4
:10071000060181EA1A418AEA030A04EA0A0045400E
:1007200088EA040707EA0B0041408AEA0B0608EA58
:10073000060084EA34428AEA3A4602EA060358404E
:100740004540414087EA37438BEA3B4003EA0009D2
:1007500085EA090582EA0309464006EA090671406E
:1007600085EA010005EA3546464006EA314181EA5C
:10077000304181EA364606EA304686EA354634405C
:100780000F4086EA010508EA050886EA364002407D
:1007900088EA020881EA314213405C4080EA0203A1
:1007A00009EA030987EA0907674088EA040806EAB4
:1007B0000A0601EA0B018AEA0B0425408AEA3A4458
:1007C000204045408BEA3B4B02EA0B02564084EA4C
:1007D0000B04234059406E40694087EA364080EA66
:1007E000384080EA060380EA104481EA134585EA2E
:1007F000344585EA17427D4082EA354180EA05406A
:100800003CE9F0006040694072407B40BEF1010E5F
:100810003FF6CFAE20BCFFF7C9FC28606960AA6034
:10082000EB60BDE8F08F00BFFFF76ABE2DE9F0076F
:1008300091E8F807B2E802105B1854EB0C04B2E838
:1008400002104D4156EB0C06B2E802104F4158EB36
:100850000C08B2E8021059EB01095AEB0C0A80E8C7
:10086000F80780410130BDE8F00770472DE9F00737
:1008700091E8F807B2E802105B1A74EB0C04B2E8D6
:1008800002108D4176EB0C06B2E802108F4178EB36
:100890000C08B2E8021079EB01097AEB0C0A80E847
:1008A000F80780414042BDE8F00770472DE9F007A6
:1008B000524290E87800B1E880071740DB1918EA47
:1008C000020854EB080419EA020955EB09051AEA73
:1008D000020A56EB0A0678C090E87800B1E8800773
:1008E00017407B4118EA020854EB080419EA020990
:1008F00055EB09051AEA020A56EB0A0678C0804150
:100900000130BDE8F00770472DE9F007524290E84A
:100910007800B1E880071740DB1B18EA020874EB87
:10092000080419EA020975EB09051AEA020A76EBCE
:100930000A0678C090E87800B1E880071740BB410C
:1009400018EA020874EB080419EA020975EB0905B4
:100950001AEA020A76EB0A0678C080414042BDE8F6
:10096000F00770472DE9F00152424FF0040890E87B
:10097000300091E8C000A31B1340E41AF618EB1BEB
:100980001340ED1AFF1830C0C0C1B8F10108EED114
:10099000BDE8F001704700BF00B592E8DC072DE923
:1009A000DC07B1E8805702B4A7FB02510A95A8FB07
:1009B000020BE7FB6310E9FB62B00B91A8FB03514C
:1009C000EAFB6201E7FB64B5E7FB6605E8FB661539
:1009D000CDF830B0A9FB03B6EAFB6316ECFB635617
:1009E000E8FB640BE9FB641BEAFB645BECFB646BF8
:1009F0000D90ACFB0230059CEEFB6250E9FB64609D
:100A0000EAFB64B0E7FB6431E8FB6451069CE8FB59
:100A10006461E9FB64B1EAFB64010E93A7FB043255
:100A2000079CE7FB6462E8FB64B2E9FB6402EAFB53
:100A30006412049CE9FB6453EAFB6463089CE7FBD3
:100A400064B3E8FB6403E9FB6413EAFB64230F95DA
:100A50005DF8049B99E80006DDF80080A9FB0854C6
:100A6000EAFB68B4DDF81080ECFB6804EEFB681468
:100A7000E9FB6824EAFB6834DDF80480EEFB686576
:100A8000E9FB68B5EAFB6805DDF81480ECFB681546
:100A9000EEFB6825E9FB6835EAFB68450F96DDF853
:100AA0000880AEFB0876E9FB6806EAFB6816DDF80D
:100AB0001880ECFB6826EEFB6836E9FB6846EAFB2B
:100AC0006856DDF80C80ECFB68B7EEFB6807E9FBC5
:100AD0006817EAFB6827DDF81C80ECFB6837EEFB43
:100AE0006847E9FB6857EAFB686708B000BD00BFCC
:100AF0002DE9F14F87B0FFF74FFFDDF81C8008F1BB
:100B0000200888E8FF00FFBC87E87F08BDE8F08F79
:100B100000B591E89857A3FB03520195A3FB04018C
:100B2000E3FB6420E3FB67100292A3FB0752E3FBA5
:100B30006802E4FB6415E3FB6805E3FB69250391A8
:100B4000A4FB07B6E3FB6926E3FB6A56E4FB670BED
:100B5000E4FB682BE3FB6A5BE3FB6C6B0490A4FB98
:100B60000810E4FB6950E3FB6C60E3FB6EB0E7FB4D
:100B70006721E4FB6951E4FB6A61E3FB6EB1E4FBCE
:100B80006E010592A7FB0832E4FB6A62E4FB6CB2DB
:100B9000E4FB6E02E7FB6E12E7FB6853E7FB696359
:100BA000E4FB6CB3E7FB6C03E7FB6E13E8FB6E231F
:100BB0000695A7FB0954E7FB6AB4E7FB6C04E8FB66
:100BC0006C14E8FB6E24E9FB6E34E8FB6865E7FB18
:100BD0006AB5E8FB6A05E8FB6C15E9FB6C25E9FBE7
:100BE0006E35EAFB6E450796A8FB0976E8FB6A06B8
:100BF000E9FB6A16E9FB6C26EAFB6C36EAFB6E46FB
:100C0000ECFB6E56E8FB69B7E9FB6907E9FB6A177D
:100C1000EAFB6A27EAFB6C37ECFB6C47ECFB6E5790
:100C2000EEFB6E6700BD00BF2DE9F14F87B0FFF707
:100C30006FFFDDF81C8008F1200888E8FF00FFBC8A
:100C400087E87F08BDE8F08F30B44FF0000310F85C
:100C5000014B11F8015B013A84EA050443EA0403FD
:100C6000F5D1A3F101034FEAD37030BC704700BF48
:100C70004FF0000310F8012B013943EA0203F9D1C8
:100C8000A3F101034FEAD370704700BF30B411F8ED
:100C9000014B12F8015B6C4000F8014B013BF6D1AF
:100CA00030BC70472DE9F00791E8F807B2E8021070
:100CB0005B1854EB0C04B2E802104D4156EB0C06E5
:100CC000B2E802104F4158EB0C08B2E8021059EBA1
:100CD00001095AEB0C0A8941B3F1FF3374F1FF3477
:100CE00075F1FF3576F1000677F1000778F100081D
:100CF00079F101097AF1FF3A51F100015B184C4199
:100D00004D4156F1000657F1000758F1000859EB24
:100D1000D1795AEB010A80E8F807BDE8F00770477F
:100D20002DE9F00791E8F807B2E802105B1A74EBBE
:100D30000C04B2E802108D4176EB0C06B2E802100A
:100D40008F4178EB0C08B2E8021079EB01097AEBDD
:100D50000C0A89415B184C414D4156F1000657F190
:100D6000000758F1000859EBD1795AEB010A80E8E5
:100D7000F807BDE8F007704718EB040859EB0509C0
:100D80005AEB060A5BEB070B5FF0000C4CF1000C12
:100D900018EB050859EB06095AEB070A5BEB070B42
:100DA00050EB0C005FF0000C51EB0C0152EB0C020D
:100DB00063414CF1000CB8EB070879F100097AF1B6
:100DC000000A7BEB040BA841B141A241B3416CF195
:100DD000000CBBEB050BB041B941AA41BB416CF122
:100DE000000C4CF001068CF0020718EB060859EBDA
:100DF0006C095AEB6C0A7BEB6C0B70EB6C0471EBBF
:100E00006C0572EB670653EB6C076CEB6C0C18EB24
:100E10000C0059EB0C015AEB0C025BF1000354F18E
:100E2000000455F1000556EBDC7657EB0C077047D4
:100E30002DE9F14F87B0FFF7AFFDDDF81080DDF849
:100E40001490DDF818A0FFF797FFBDE8000FFFF73B
:100E500093FF03B05DF8048B88E8FF00BDE8F08FD6
:100E60002DE9F14F87B0FFF753FEDDF81080DDF874
:100E70001490DDF818A0FFF77FFFBDE8000FFFF723
:100E80007BFF03B05DF8048B88E8FF00BDE8F08FBE
:100E9000054B1B780022013382600260034A4260E6
:100EA000C371FF2303727047101F002080010800E8
:100EB000064B074A9B7802604FF422728280C3710E
:100EC0000822002382710372704700BF101F0020A8
:100ED00079C40100064B074ADB7802604FF43E728A
:100EE0008280C3710822002382710372704700BFA1
:100EF000101F0020A9C10100064B074ADB7A0260DF
:100F00004FF4C4728280C3710822FF23827103727E
:100F1000704700BF101F002027BC01002DE9F341DE
:100F2000C41D002824F00704064614BF20460020F4
:100F300000F07AFC071E04DA6FF00B0002B0BDE887
:100F4000F081364DE988A8886B7A2A7A033103301C
:100F500089B280B217F08AF80028EDDBA978EB7827
:100F60003C440334002E194424F0030400FB01F137
:100F700014BF2046002000F0E9FD20440EB90028EF
:100F8000DADBEA7A0446B2B1EB7B697C134419449C
:100F9000FF29D1D80330002E20F0030414BF2046CF
:100FA0000020AA89C9B200F043FE0028C4DB044433
:100FB0000EB9002CC0DB012000F02CFCB0B1A97BE5
:100FC000A1B195F82A3033B340234FF4817207342E
:100FD000002E24F0070414BF2046002005F0CAF9B3
:100FE0000028A9DB04440EB9002CA5DBAB7AF3B1D1
:100FF000EB7AABB10734002E24F0070414BF20466F
:101000000020A97A0BF03EF8002895DB044476B95D
:10101000002C0CDA90E725232822D8E7101F0020A7
:10102000012000F0F7FB10B1AB7B002BE2D1734B3A
:101030001B6893B1A97D81B10334002E24F0030411
:1010400014BF20460020EA7D98470028FFF674AFC1
:10105000044416B9002CFFF66FAF694B1B688BB1C7
:10106000297C79B10334002E24F0030414BF2046F8
:10107000002098470028FFF65FAF044416B9002C03
:10108000FFF65AAF5F4B1F68AFB1697C99B12B7DFA
:1010900000930334002E24F0030414BF20460020E4
:1010A000EB7CAA7CB8470028FFF646AF044416B98B
:1010B000002CFFF641AF072000F0ACFB98B1A97DF2
:1010C00089B10334002E24F0030414BF204600200D
:1010D0002A7E00F09BFE0028FFF62EAF044416B9CE
:1010E000002CFFF629AF95F82300B6FA86F77F09A2
:1010F000A0B16B7FA97E033424F00704194444F0A7
:1011000004043B462246C9B200F0C0FE0028FFF6A8
:1011100013AF044416B9002CFFF60EAF95F8241057
:1011200000294CD004F10708002E28F0070814BF4E
:1011300040460020EA8C16F0ADFF041EFFF6FCAE20
:101140004444002E3ED1002CFFF6F6AEA97F0029C4
:1011500045D095F82230002B41D02A8C0734002E40
:1011600002F1240224F0070814BF4046002092B286
:1011700016F090FF0028FFF6DFAE404416B90028B5
:10118000FFF6DAAE2B7FA97E033020F0070040F097
:101190000404194495F822003B462246C9B200F0E7
:1011A00067FE0028FFF6C8AE044486B9002CFFF69F
:1011B000C3AEEB6AF3B1C6B1EC620020BEE6002E0E
:1011C000C4D08846E98C404612F01EFFBEE72A8C48
:1011D000A97F083292B2404612F01CFFE9E7002EC8
:1011E000E7D0002211461046F6E728343FF5A4AEBA
:1011F0002046A3E6002EE0D1FAE700BF4C2C0020E9
:10120000502C0020542C00201FB572B6194B1D6BBA
:10121000EDB9BFF34F8F1849184BCA6802F4E0626A
:101220001343CB60BFF34F8F00BFFDE72346B2FBF4
:10123000F6F25C1C002AF9D104AEDCB256FA83F354
:1012400003F80C2C0A2234B901A8A847E1E70246AA
:1012500000230A26EDE7631E04AEDCB256FA83F3E0
:10126000B0FBF2F602FB1600303003F80C0C3046EF
:10127000E9E700BF101F002000ED00E00400FA05C0
:1012800013B5124C2389ADF80030E388ADF8043073
:101290006846A388ADF8023008F06EFD18B1FC2155
:1012A0009C20FFF7B1FF207D08F0CAFD08B1FF21A7
:1012B000F6E7E07C08F0BEFD10B14FF48071EFE777
:1012C00094F8280010F05CFD02B010BD101F002043
:1012D00038B5054600283DD015F09EFD10B94FF0F9
:1012E000FF3038BD13F036FBB0F5FA7FF7D81B4C52
:1012F00025631B2500212A4604F10F0084F83410D1
:10130000217084F82A10E16216F044F80123A370DA
:10131000E370E372A3742376F72303210820238468
:10132000FB2302222172A072A1731F204921E384B2
:101330000A23A580E5806272A081E174E27584F8D9
:101340002830EFF3108472B600F0B0FD04B962B635
:101350000020C6E76FF01500C3E700BF101F002094
:1013600038B51446002840F0C480634D95F83430F9
:10137000032B00F0BB80B9B112B96FF0150038BD76
:101380000139172900F2B580DFE801F00C1D203685
:101390006069873C6C6F814248565B8D909FA2A527
:1013A00096B3B3A81378AB700020FFF7B7FD002801
:1013B000B7BF0123022385F834306FF00B00A8BFBC
:1013C00085F83430DBE71378EB70EDE71379002B09
:1013D000D3D05379002BD0D01288FB2ACDD8638884
:1013E0001B3B9BB2E02BC8D81A2AC6D923686B6076
:1013F000424BA2889A80D7E71378EA7B9342BCD30A
:10140000EB72D1E71378EA7A9342B6D8EB73CBE765
:101410001378EA7A9342B0D86B74C5E71378002B3F
:10142000ABD05378013BDBB2F82BA6D813886B8284
:10143000334B92789A70B7E71078687510F038FCE3
:10144000B2E71378002B98D02B76ADE7012000F09F
:10145000E1F9237808B1012B8FD9AB73A4E7138886
:10146000AB81A1E71378AB759EE7072000F0D2F9B6
:1014700010B92378012B80D9072000F0CBF918B1DF
:101480002378002B3FF479AF2378EB758CE7137842
:10149000082B3FF672AF2B7486E71388FF2B3FF6BD
:1014A0006CAFAB7280E713786B767DE713780E2B09
:1014B0003FF663AFAB7677E72368124AC5F81E3074
:1014C00063685360238913816EE71378EB766BE7CB
:1014D00013786B7768E713782B7765E713785A1ED4
:1014E000092A3FF64AAF85F828305DE74FF0FF3014
:1014F00045E76FF02C0042E7101F0020141F00206A
:10150000221F00202E1F0020F8B50D46064630B3DE
:1015100029B311F0070422D1124F97F83430012B70
:1015200002D16FF00B00F8BD032B02D14FF0FF305A
:10153000F9E700F089F80028F8D02846FFF7EEFC1C
:101540000028EEDB1BF072F83046F96A08F010FD57
:10155000FFF796FE032387F834302046E3E76FF069
:101560001500E0E7101F002010B5074C94F8343048
:10157000032B03D108F014FD09F022FD16F0DEFE66
:10158000002084F8340010BD101F002050B1074B1C
:1015900003F1140253F8041B40F8041B9342F9D1E1
:1015A000002070476FF01500704700BF4C2A0800FC
:1015B00008B5064B93F83430032B03D007F018FC22
:1015C000002008BD4FF0FF30FBE700BF101F0020D8
:1015D00008B508F06FFCBDE808400249032000F0A0
:1015E00011B900BFF90E000008B508F07DFCBDE898
:1015F00008400249022000F005B900BFD50E0000E6
:1016000008B508F093FC0649012000F0FBF80549F5
:10161000002000F0F7F8044B012283F82A2008BDCF
:10162000910E0000B10E0000101F0020024B026856
:101630001A600020704700BF481F0020014B1B6844
:10164000184700BF481F0020024B1868003818BF19
:1016500001207047481F0020074B4FF0FF3141F633
:10166000FF72C3E9001205490022C1E900221F21CF
:10167000C3E90212704700BFC00400204C1F0020C5
:101680003F280CD801380B4BC0F3421200F01F006A
:1016900053F8223023FA00F000F001007047FF28D1
:1016A00006D04038C0F34212034B00F01F00EFE7B2
:1016B00001207047C00400204C1F00200146074B4A
:1016C000006849681A4603C240F48C221A6041F04F
:1016D000107242F4FF625A6000207047C00400207C
:1016E0000246034B0068516803C30020704700BFE7
:1016F0004C1F00200246034B0068516803C30020C2
:10170000704700BFC8040020382800F1FF33DBB267
:101710001FBF064A590902EB810203F01F031DBFD8
:101720009068D84000F0010000207047C0040020FD
:10173000F0B50C88C37C0288A5B2C4F30E0404F192
:1017400018060233865B1A44334497B213FA82F3C5
:10175000013B4288B3FBF7F313FB07439BB29A426A
:10176000044A93BF22EA05032A4013439BB20B802D
:10177000F0BD00BF0080FFFF4A1E062A08B50346E1
:10178000084604D84FF4D1711520FFF73DFD094AF2
:10179000914202D940F2A311F6E711B903B11960E1
:1017A00008BD2BB11B680022C3E901211A1D1A6074
:1017B0000430F5E7FAFFFF7F10B5114B00EB410451
:1017C0001A786389B3FBF2F303FB0223013A1A444C
:1017D000B2F5706F0279807828BF00231A440B1885
:1017E000B2FBF0F100FB11215B1AB3FBF0F100FB3F
:1017F000113313446FEA43436FEA5343638110BDCF
:10180000541F0020024B03EB80035960704700BF58
:10181000541F0020034B03EB80035868003818BFA7
:1018200001207047541F00202DE9F04F10F0070AE7
:1018300085B0054604D040F26F111720FFF7E4FC95
:10184000544F07F14C06B1460446B0464FF0010B29
:1018500057F8043B8DF80BA03BB101A898479DF8C1
:101860000A30082B01D9F521E7E79DF80B1041BBA1
:1018700005B131604F4506F10406E9D1002D70D065
:10188000DFF81491002289F800209646122758F8B4
:1018900027A0013FBAF1000F56D09AF804609AF8D9
:1018A00002C0FF2E61D039460023481C39D19C4428
:1018B000BCF1FF0F40D90AB189F800E04FF49A71EA
:1018C000BBE79DF80AC06046022838BF02204B1DC6
:1018D0005A0004EB4303441E2344BDF8084064440B
:1018E000013CCCF1000C04EA0C044042B4F5803F0A
:1018F00003EA000302D340F205119EE775B19A1A7C
:1019000032609170148082F803B09DF80C00107161
:10191000019810814FEA104CA2F806C004FB013474
:10192000A8E758F8210028B190F804B0B34504BFE7
:1019300080781B180139B8E7DBB2E6458AF8043035
:101940003CBF5FFA8CFE01227B1CA0D10AB189F852
:1019500000E0122640F6FF6A58F82670B7B9013E3B
:10196000FAD2601B05B0BDE8F08F0023E5E707EB76
:1019700041033846A3F80AA0FFF71EFF09F1010949
:10198000BB785FFA89F18B42F1D8E8E74FF00009A4
:10199000F6E700BF581F0020541F0020034B03EB45
:1019A0008003186D00B18078704700BF541F00207D
:1019B00038B54FF6FF730380184B03EB81030246E3
:1019C000186DA8B184780379B3FBF4F104FB1133EB
:1019D000DBB2194600EB4105B5F90A50002D0EDBCC
:1019E0000131B1FBF4F504FB1511C9B28B42F1D101
:1019F000002038BD6381BDE8384016F013BB00EB12
:101A000041046389C3F30E031380C278002AF1D125
:101A10004FF4E5711720FFF7F7FB00BF541F0020BC
:101A20001C4B03EB810370B51C6D054644B30304E6
:101A300004D54FF4EC711720FFF7E6FB0146204672
:101A400016F0D2FAFF28014604D02046BDE87040C7
:101A500016F0E8BAA078B5FBF0F300FB1353DBB245
:101A600019460A1D04EB4206B6F90260002E09DB96
:101A70000131B1FBF0F200FB1211C9B28B42F0D17F
:101A8000002070BD8B4201D00023E37004EB4202C2
:101A90005580DAE7541F0020094B03EB810310B592
:101AA0001C6D0146204616F09FFAFF28014604D01F
:101AB0002046BDE8104016F0B5BA002010BD00BFAA
:101AC000541F0020F8B5104B03EB810307461C6D33
:101AD0000146204616F088FAFF28054611D0E28814
:101AE000238953EA024606D00146204616F09AFAA8
:101AF00001463846B04720462946FFF75DFE0020E4
:101B0000F8BD0520FCE700BF541F002038B50E4B80
:101B1000827903EB82030446186D08B9052038BDAD
:101B20008278E1799142F9D24B1CE37100EB4103D9
:101B30005D89B3F90A30002BF3DBA58016F072FA49
:101B400020600020EBE700BF541F002070B5044662
:101B500010F003000E4603D04E211820FFF754FB6F
:101B6000FFF70AFE054624B1034831460460FFF73B
:101B700003FE284670BD00BFF01F00202DE9F14F85
:101B8000DFF870B09DF828A09DF82C901E46DBF879
:101B9000003007460D4690461BB960211820FFF71C
:101BA00033FB52460921404616F09FF84A4684B25C
:101BB0000921304616F099F814FA80F1DBF800009C
:101BC00016F0E6F9386018B9286001B0BDE8F08F6A
:101BD00004442C60386853464146092216F048F800
:101BE00028684B460922314601B0BDE8F04F16F097
:101BF0003FB800BFF01F002070B50E46044616F037
:101C000087F80546304616F083F8044B2A1821461B
:101C10001868BDE8704016F0E0B900BFF01F002062
:101C2000024B186808B116F0A7B97047F01F0020E2
:101C30001F2AF8B5044613460ED89200033222F04C
:101C40000303B3F5803F2DD2184DACB1A00710D0DF
:101C500068210920FFF7D8FAFF2B4FEA420204D986
:101C6000FF339A42A8BF1A46E8E77C2AB8BF7C2215
:101C7000E4E729706C602B8122F003022823120410
:101C800003FB01F001276B68120C0025EEB2B14294
:101C900000D8F8BD14B126181F705E6010440135DD
:101CA0002833F3E74FF0FF30F3E700BFF41F0020C5
:101CB00070B5154A157853680021C8B2854203D81B
:101CC000BA210920FFF7A0FA1C46184614F8286B21
:101CD00001310EB92346F0E700219970128999610C
:101CE0000124D96159685C70920803F11E0403F164
:101CF000260524F8022FA54243F8041F1144F8D109
:101D000000234361037070BDF41F00200A4B1B8940
:101D1000B3F5FF7F4FEA930006D25A089B1A9BB295
:101D2000984238BF18467047B3F5EE6F01D8FF22CE
:101D3000F4E740F27263F3E7F41F00204B782DE9DB
:101D4000F04106460C4602F0040702F0FB05E3B141
:101D5000A5BBFF23A3707B0804EB57073A7D032A3A
:101D600002D1022D18BF0133E2180121117503F1D0
:101D70000C0104EB8303002224F811205B68A2709D
:101D80003360B2803046BDE8F081002DE1D10123FF
:101D90004B701D4B8D611B89CD6101F11E0249689D
:101DA0009B08204604F1260C22F8023F944540F897
:101DB000041F1944F8D100236361CAE7D1F80480F5
:101DC000142200216170A01815F0E4FA0E4B1B8953
:101DD000B3F5FF7F0FD25A089B1A9BB208EB0301A1
:101DE000C4F804802384A1606284C4F80C80A384B6
:101DF0002161E284ADE7B3F5EE6F4FF0FF02EBD95E
:101E000040F27263EAE700BFF41F00202DE9F843B7
:101E100005460C46F7200521914615F066FF061E83
:101E200021DB1DB914FB06F0BDE8F88315F00307AC
:101E300003D098211920FFF7E7F9DFF83080C8F8C0
:101E40001050A8F81460BBB29C42EBD9B8F81450FB
:101E5000D8F810004B4607FB05000522F72115F0C6
:101E600007FF0137EFE74FF0FF30DDE708200020E4
:101E700007B5CDE900230B4603490246081D16F0BD
:101E800037FA03B05DF804FB2020002013B5064CA0
:101E9000CDE900230B46024604F1080104F10C00D1
:101EA00016F026FA02B010BD20200020134B0122AC
:101EB00000214FF0FF309A60C3F80012C3F8080306
:101EC000C3F80015C3F804259A60C3F80803C3F8E3
:101ED0000015C3F804250A490A4A03F580334FF474
:101EE0000040C3F80825C1F88000BFF34F8FBFF34F
:101EF0006F8FC1F88001C3F80825704700F00040DB
:101F000000E100E00000F63F8C46342300B50CF8F9
:101F1000033B054B8E4607CBCEF80300CCF80410EC
:101F2000CCF808205DF804FB3C20002070B51A4E68
:101F300096F8244005460CB101280DD0012912D88D
:101F4000336B2846984770B196F8340058B964B995
:101F5000012D1FD0204670BDB38D1A07EED596F81F
:101F60002E30002BEAD0012070BD002DF3D1B08DB2
:101F700083070AD40028F6D196F83530002BEAD131
:101F800096F8360080F0010070BD96F82E0080F0C3
:101F9000010070BDB08DEDE73020002010B5154C6C
:101FA00010F04AFE11F03EFFE36B208F00219847AE
:101FB000237E9BB9104B228F93E803000AF0CCF9E3
:101FC000A36A18880AF014F8636C94F8341094F833
:101FD00040009847002384F8483010BD94E807007B
:101FE00004F10C0383E80700044904F1190018F018
:101FF00063FCDFE73020002054200020091F000090
:10200000034B93F8483003B97047FFF7C7BF00BFD1
:1020100030200020F8B5264CA56AE76C95F893208F
:1020200095F8751027654FF48173A4F8543094F82F
:102030006030064603EB820308B9FF2B19D018461F
:1020400010F044FB95F893305BB3606E10F004FF22
:10205000616E206D11F0B2FEB6B1A88E10F09EFA3E
:1020600095F87410002011F01BF8022384F8483012
:10207000F8BD95F874008842E1D1002AE5D13846D0
:1020800010F0EAFE11F0CEFE95F875302A8F033B72
:10209000012B8CBF00202820104480B210F082FF5A
:1020A000DBE7206D10F0D8FE11F0BCFED4E700BFD6
:1020B0003020002008B5094B93F84820022A07D1A8
:1020C000DA7A42F00102DA72BDE80840FFF766BF33
:1020D00040F2E6212720FFF797F800BF30200020CC
:1020E000F0B5194CA56E83B04DB3A36D3BB3B4F8F6
:1020F0005C306B702B782F4601F0030123F0030353
:102100000B4307F8033B0646B4F85C20A16D384644
:1021100015F0C2F90DF1020201A9E06E2565A7656F
:1021200015F020FF019815F00BFF0346B4F85C1082
:10213000E06E3360012215F0AEFE03B0F0BD40F258
:10214000E7712720FFF760F8302000202DE9F04FDD
:10215000B94CA76A85B097F8741040B997F89320E6
:1021600094F8603003EB8203FF2B00F02581FF2001
:1021700010F0ACFAA36A93F8888000228DF8092049
:10218000ADF80A20B8F1050F00F2E681DFE818F09B
:10219000CA00E90032003200060006000DF10A0113
:1021A00003A8009308F0FCF8002800F02C81039E9F
:1021B000009B002E00F02781012284F87420BDF8D6
:1021C0000A204FF0050A83F888A072BBA4F8882083
:1021D000C4F8842093F889B093F88A20E667AAF1BE
:1021E000040A5FFA8AFABAF1010F00F2B281002103
:1021F000097832E0B3F86410ADF80A10A06F0093CC
:102200000DF109020DF10A0115F0A9FD009B06462A
:10221000002800F09981012284F8742093F888A0A6
:10222000BDF80A20002A00F0FA80A4F88820BAF14C
:10223000020F06F10302C4F8842093F889B093F8E2
:102240008A20E66700F09980AAF1040A5FFA8AFA08
:10225000BAF1010F00F27D81F1780093022900F0BC
:10226000D780A06F019215F0D5FDD4F884100978BD
:1022700005011B29DDE900328146EDB200F0038142
:102280000021E66F4FF0030A884633784FEACB0B04
:102290000BF0080B920003F0F30302F0040243EA90
:1022A0000B03134323F010031D4325F003054AEAF3
:1022B00005053570B4F888307370E26F0223A4F816
:1022C0008030137823F020031943B8F1010F117007
:1022D0000AD1A36A197C5B7C032908BF002103F0A3
:1022E0001F0343EA8113937097F8923084F8359076
:1022F0001BB1B4F88830002B56D1E06F10F0ACFD64
:1023000011F090FDF88E10F049F997F87510012042
:1023100010F0C6FE012384F88C3084F8483005B0F4
:10232000BDE8F08F94F87320A3F864200DF10A0142
:1023300003A80093ADF80A2008F032F8009B0028AB
:1023400046D0039E002E43D0012284F87420BDF8AD
:102350000A204FF0040A83F888A0002A7FF465AFB2
:1023600034E7364AE2670022A4F88820C4F88420C3
:1023700093F889B093F88A20C246A06F009215F0B6
:1023800049FD009A81460546E8B9009208F022F816
:1023900080F001095FFA89F929464FEA0915E66FCD
:1023A000009AEDB2884670E7606E10F055FDE16F5F
:1023B000606E11F0C7FCA5E797F875308B427FF48B
:1023C000D6AE3B46D7E60021E66F102588465CE78F
:1023D00093F8CF20A2B300250021184E93F889B0BE
:1023E00093F88A20ADF80A104FF0010AA4F888107B
:1023F000C4F88410E66783F888A0002DBDD0894614
:102400004546414641E740F21C512720FEF7FCFEBD
:102410000025A94629464FF0030AA84635E7BAF138
:10242000020FA4F88820C4F8842093F889B093F8A8
:102430008A20E667A1D0D2E630200020A02000202C
:10244000A06F00930DF10A010DF1090215F087FC50
:10245000009B06460028BED09DF809500DBBBDF874
:102460000A20002A53D14FF0010AA4F88820C4F8AA
:10247000842093F889B093F88A20E66783F888A0CF
:1024800084F874A079E7012103F1100000924FF065
:10249000030A10F061F94FF00108E66F009A20215D
:1024A000F3E63146A06F15F047FD15F049FDD0F871
:1024B00000B0D0F804A0009B5BEA0A02814633D149
:1024C000BDF80A20002189F8001089F8011089F868
:1024D000021089F8031089F8041089F8051089F8AA
:1024E000061089F80710002ABDD09DF8090070B1C8
:1024F000307800F0030001281FD083F895104FF0CA
:10250000020A012183F888A084F874108DE6002265
:102510003280B2704FF0030A012284F8742083F8ED
:1025200088A0BDF80A207DE6009312F0F3FB8345F6
:102530007AEB0101009BC3D24EE74FF0030A84F807
:10254000740083F888A070E640F20D512720FEF752
:102550005BFE4FF0010A10E740F226512720FEF7FC
:1025600053FE00BF2DE9F0413B4C94F84830012B5D
:1025700086B067D1A56A5FFA83F895F8843006467D
:102580000F4673B1A38D002143F00403A38585F8A2
:102590008410E36B0420984794F824300BB185F83D
:1025A000858095F88830042B35D095F8933033B971
:1025B00006B92FBB06B0BDE8F041FFF7EFBCA36A38
:1025C00094F860C093F8750094F8243001381C1E0C
:1025D000C0B218BF01240328D5E93C2305F1F80156
:1025E00005F5847533D800941C4C205C03900024BE
:1025F0000120CDE9015CCDE9044011F0F3FAD7E701
:1026000031463046FFF792FC0028D3D106B0BDE832
:10261000F041FFF7FFBCA38D114943F00203A385EE
:102620000220E36B984794F82430002BBDD0D4F8F7
:1026300084301B78A3F10203B3FA83F35B0984F8B7
:102640002E30B2E740F62F012720FEF7DDFD40F2E5
:102650002C410620FEF7D8FD30200020C0A2060045
:10266000B42000202DE9F04FC34C94F84820A56A0F
:102670008BB00023022ACDE9083340F01C82236D81
:1026800093F8008003220F465978A4F8542013448D
:1026900008EA0202A365064695F89330A4F85C1098
:1026A0000692C8F30019002840F08180002B40F00A
:1026B000808194F88F30013384F88F30238F43F476
:1026C0008063238795F87530033B012B40F2D88057
:1026D00008F02EFE002840F0D3804FF00008C246DC
:1026E000C34695F89230002B40F0E080A36E002B9B
:1026F00000F0118184F836903FB994F88F100120D2
:10270000FFF714FC002800F0578110F051FDBAF1DA
:10271000000F40F02B814FF00108218F11F0400194
:1027200006D1E36B40209847238F43F04003238773
:10273000BBF1000F09D094F82430002B40F02E811B
:10274000B4F809300133A4F80930002E00F0EC8011
:10275000B4F8053000220133A4F8053084F88F2046
:10276000864809F033FC089830B115F0E9FB0022E7
:102770000272294608F046FD099B33B100221A7205
:102780000C220998294608F00BFDB8F1000F40F023
:10279000E880238F1B0607D4E36B414680209847CF
:1027A000238F43F0800323870BB0BDE8F08FC8F37D
:1027B000C00A002B40F0BE80002940F008810020B4
:1027C00095F88930228FA0660133DBB283EA98083E
:1027D00042F4007218F00108228740F0D38095F887
:1027E000881091B10139C9B2042985F8893000F205
:1027F0006781634B0B441B79002B00F0C380022BD5
:1028000000F0FD80032B00F03E8194F8243000217D
:1028100085F888105BB195F8853043B1A38D85F8B4
:10282000851043F01003A3851020E36B984795F8BB
:102830008A30228F03F0010142F400628A45228728
:102840004FF0000B40F0A680B4F85C10002900F0B7
:10285000C2800698411E012940F2E380013303281B
:1028600085F88A3000F0BD80D5F8F0300133C5F826
:10287000F030D5F8F43043F10003C5F8F43089E0C6
:102880000FF0A2FE04287FF428AFB4F85C8095F81E
:102890009230B8F11B0F4FF0000A94BF4FF00008C0
:1028A0004FF00108D346002B3FF420AF95F874C0D9
:1028B00094F8243095F87E000CF1FF3C5FFA8CFC14
:1028C000B3FA83FE800005F1F803BCF1030F079310
:1028D000C0B2D5E93A234FEA5E1E05F5847100F2D5
:1028E000F480CDE900E1DFF898E01EF80CC0CDF8E7
:1028F0000CC04FF0010E4FF0000CCDE904CE4FF0AC
:10290000FB0C05F1F801CDF808C011F06BF9A36ECE
:10291000002B7FF4EFAEB4F85C30002B14BF4FF007
:10292000000909F00109E5E6B4F807300133A4F81D
:10293000073015E711F092FA831EDBB2012B10D994
:10294000B4F85C1000287FF437AF00293FF437AFAC
:1029500095F88A3003F001039A4538D1012384F8B1
:102960004030FFF71BFB0BB0BDE8F08F069909A8BC
:10297000FFF7B6FBCFE600BF302000205420002038
:10298000C0A2060095F88A3003F001018A45B346DB
:102990003FF45AAF4FF00008C246A2E6B4F8072051
:1029A000B4F805301343B5F8862013433FF4CDAE99
:1029B000C6E611F093FA7CE6FFF7C8FBBAF1000F08
:1029C0003FF4ABAE069909A8FFF78AFBA5E6E06ED7
:1029D00015F041FAF4E6013385F88A30069B032BA3
:1029E000D8D1A38D404943F00103012042F4805225
:1029F000A38585F88400E36B2287984734E7A06FAE
:102A000008A915F0D1F9002869D0D5F8E8300133CC
:102A1000C5F8E830D5F8EC3043F10003C5F8EC30E8
:102A2000F3E642F4805295F8938022870FF0CCFDB4
:102A3000042894F88D3007D1B8F1000F0CBF1F2285
:102A40001B22934228BF1346B4F85C209A4226D832
:102A5000A36E002B9ED094F88E80B8F1000F25D184
:102A6000D5F8F0300133C5F8F03095F88A3003F12D
:102A7000010385F88A30D5F8F43043F10003C5F836
:102A8000F430B2462DE607F099FC18B3A38D43F05D
:102A90000803A3854146E36B08209847B5E794F8FF
:102AA000343043F0100384F8343073E7E36B0021D3
:102AB000202098476EE74FF40C612720FEF7A4FB17
:102AC00040F2D6612720FEF79FFB40F22C41062002
:102AD000FEF79AFB40F201712720FEF795FB40F2CA
:102AE000F7612720FEF790FB8820002010B50C4CE2
:102AF0000C4A94F848300C49116023B14FF4A4718A
:102B00002720FEF781FB03F0FF02227609F01CFC70
:102B100007F05EFAE06407F05FFA606610BD00BF80
:102B200030200020582C0020D82E000010B5074A75
:102B300092F8483013B10C24204610BD03F0FF0476
:102B4000147609F001FC204610BD00BF30200020A3
:102B50002DE9F043B04C89B006AD85E8030094F848
:102B60004800109E9DF84470002840F08381002AA0
:102B700000F08081002B00F07D81002E00F07A8132
:102B800000F0FF0184F8341084F88F1084F84010AE
:102B900084F88C10A185218784F8351084F83610CC
:102BA00084F8741084F82E10E167C4F88410A4F837
:102BB00088102165A165A4F85C1095E803002363E3
:102BC00004F1240383E80300A56AE263666484F8E1
:102BD0008E700FF025FE11F025F995F97C000FF0AD
:102BE000CFFEAE6A286A0FF0D1FE304610F018F919
:102BF00095F8A4000FF0D4FEAB8E532B35D9EB8E95
:102C0000532B32D994F82460002E34D0A36A93F861
:102C1000C231002B40F0AA8018F0E7FC95F875202F
:102C200000F1820101200FF0AFFF7C4B186810F01B
:102C3000FDF8A36A696993F88D20A167A2F12A01C2
:102C4000A86993F87460E066012928D993F88E107A
:102C50002A2924D0253A012A40F2B880282900F0F8
:102C60009B80032E08BF04262FE00FF09DFC94F8F4
:102C70002460002ECAD118F0B8FC95F87420684B77
:102C800033F8123001463046664E03F5FA73A6FB60
:102C9000036301EB931160310FF076FFC5E794F801
:102CA0002420002A5DD093F8C23273B1F21ED2B252
:102CB000012A40F29680DA1E012A40F29280012E0B
:102CC00003D0012B0CBF0126022605F13C0731463B
:102CD000384617F0C8FE314617F035F9B5F84830D8
:102CE00095F875100246934228BF1346384684F87B
:102CF000733017F066FE95F8751095F89370B5F877
:102D00005060042908BF032117F01DF90FB90430E2
:102D100080B2864228BF0646F6B284F88D6008F07D
:102D200007FB90BB94F8243084F860600BBB95F8E7
:102D30009220002A7AD10120FFF708FA0023C4E983
:102D40000033A360AB6F2988B5F8860095F8A420FE
:102D50006080218022710BB101221A6009B0BDE8A8
:102D6000F08393F83232002BA0D1AEE70FF03AFD9A
:102D700052E795F89330B3BB0120FFF74BF9A36AF4
:102D8000D3F8D80110F0D4F8D8E708F0D7FAB04259
:102D900038BF3046C6B2C5E794F82420002A3FF475
:102DA00060AF93F82E2193F86D3013405A0718D472
:102DB00013F0010259D19B0787D5F31EDBB2012B1B
:102DC0000FD90222012E18BF16467EE72829E3D02C
:102DD00094F82420002A3FF444AF93F82E31590789
:102DE000E6D5042671E795F875000138C0B20328CE
:102DF000D5E93C2305F1F80105F584773FD8CDE905
:102E00000176094E305C0390002601200590009069
:102E1000049610F0E7FEAFE730200020582C002089
:102E200048A50600D34D6210C0A2060095F8746054
:102E300095F87E00013EF6B28000032ED5E93A896E
:102E4000C0B205F1F80105F5847218D80E4F04934D
:102E5000BE5D0396012605960096FB2601924B4621
:102E60004246029610F0BEFE65E7F31EDBB2012B70
:102E7000A8D8B6E74FF408712720FEF7C5F940F24D
:102E80002C410620FEF7C0F9C0A20600FFF786B865
:102E9000014B93F88C00704730200020064A138FB6
:102EA00013F4C06F03F4805103D092F8740000B1A2
:102EB0007047080B704700BF30200020024B93F88A
:102EC0003900C0F3C000704730200020014B93F858
:102ED0008F00704730200020B520000065260000DC
:102EE00065250000012000000B46062203F8032B95
:102EF000B0F809C0C27AA1F803C09A70704700BF49
:102F000008B540F2BD213220FEF77EF990F8DE20B0
:102F100012B902F0FF00704710B5363882B00C4687
:102F200004F056F918230420237002B010BD00BF2E
:102F300070B5002855D0437A0D460446B3B3408996
:102F40000021FEF7A9FD002850D000880021FEF7DF
:102F5000B9FD00284FD194F8546094F8A6302BB1F5
:102F600094F8A7301E43002384F8A630204604F0CE
:102F70002FF9B3072BD12B46132203F8032B04F1AF
:102F800009022934166850689168D2F80CC0C3F859
:102F90000CC01032A2421E605860996003F1100309
:102FA000F0D1117819700022AA7170BD036DD0F8AC
:102FB0000E20C3F80320428AA3F80720437B026D4A
:102FC00003F0FD03003B18BF01239370C3E726F015
:102FD0000406002284F854601146204604F0CEFE18
:102FE000C9E740F206313220FEF70EF940F2123105
:102FF0003220FEF709F940F215313220FEF704F9CC
:10300000044B1B680022A3F8792183F87B2183F805
:1030100070207047C020002008B50EF075FE034BED
:1030200018700FF009FE032008BD00BFD004002077
:1030300008B50EF069FE024B02461A70012008BD69
:10304000D00400202DE9F041064615461C4649B142
:10305000B36823B11DBB2CBB0020BDE8F08101206B
:10306000BDE8F081194F396891F85A2091F87E0037
:1030700001F15B03783116F0C6FED7E900235B79D6
:10308000082B19D092F856100129E1D00029E3D17C
:103090000028DDD192F84E209A42D9D0DCE72846AC
:1030A000BDE8F0810949B27C0968BDE8F04191F8BA
:1030B0004100423116F0A7BE92F85630012BC7D01E
:1030C000002BC9D10028C3D1C6E700BFC020002013
:1030D00038B5114C20686C3003F0BEF9656803F018
:1030E0006BF963682860186858B103F093F968B108
:1030F0000FF0B2FE00200FF055FF636804221A7132
:1031000038BD40F2F5413220FEF77EF840F2F7413B
:103110003220FEF779F800BFC020002008B50EF07D
:10312000F3FD0449044B024648681A7003F00CFA98
:10313000012008BDC0200020D0040020F0B5504C74
:10314000236800221F6D83B05A72FA690E463988CF
:103150005981054641F27071A2F57A70884274D99E
:103160004849A1FB0212C2F38F221A84BA8C5A84F6
:10317000FA8C9A844FF47F42DA844FF6FF721A85F4
:10318000002D48D00121304617F0D4F93278D20909
:10319000236893F8481009B1002A46D100215961EB
:1031A0001983207B082858D003F10E0203F10D018A
:1031B00007F092FB00285ED023685A7B42F002029F
:1031C0005A7303F11A07002D39D103F17800026810
:1031D0003A608288BA8093F95810186D07F0EEFCB7
:1031E0002068294917F05FFB20682849036D1A8879
:1031F000A0F8332093F8963080F835302A3017F055
:103200005BFB2068022104F04FFF20686C3003F064
:1032100023F903B0F0BDA068694617F053F8A3681E
:103220001A786846C2F38012B2E7427902F0C0020F
:10323000402AB3D102685A6182881A83B1E700211B
:10324000304617F077F92368C1E71149A1FB021254
:10325000920902F5506292B287E793F87E00996F67
:103260005873C3F80E10B3F87C0058820021C3F8DD
:103270001A10D983AFE741F217413220FDF7C4FF9E
:10328000C02000205917B7D1312F0000E92E0000CF
:10329000D34D621008B540F29B313220FDF7B4FFE8
:1032A00010B504788CB004F00F04224602A903F094
:1032B0000BFC0EF029FD234A042C107002D00320D1
:1032C0000CB010BD204C0399236891F800E093F8EE
:1032D00078C0E645F3D191F801E093F879C0E6456E
:1032E000EDD191F802E093F87AC0E645E7D191F884
:1032F00003E093F87BC0E645E1D191F804E093F850
:103300007CC0E645DBD191F805C093F87D108C4573
:10331000D5D193F87E309DF819109942CFD17F28EE
:103320000DD000904FF07F0C606882F800C0237CC5
:10333000227B02A903F034FB03200CB010BDFFF781
:10334000A9FF00BFD0040020C020002010B50E4A05
:103350005368197902290DD9197908290FD81B79D1
:10336000526903F180439268033BBDE8104052F874
:10337000233018474FF4A6513220FDF745FF41F2A4
:10338000C1413220FDF740FFC020002038B5194D63
:103390006B681B79022B28D82B68027C83F8A42049
:1033A000C16899661A44044692F87C2183F8782112
:1033B0004268C3F88820037A022B0ED00FF030FA4F
:1033C0000FF03CFE0EF022FD0B480FF02FFD0B48D6
:1033D0000FF026FD0A480FF0D9FA637C23B12B6861
:1033E0005B6E0BB101221A6038BD40F60811322025
:1033F000FDF70AFFC0200020885D000055555500EC
:10340000D6BE898E70B53B4C63681A79032A06468E
:1034100043D01A79042A40D0226892F854209207A7
:1034200040D1A568002D4CD0236893F85430002B70
:103430003DD03EB1284617F05DF9E0B9284617F0B7
:1034400074F9C0B963681A79022A3FD91A79082A2F
:1034500041D81B79626903F180435269033B52F8FA
:10346000233098470C2827D86369DB68BDE8704093
:1034700053F82030184763681A79022A30D91A792C
:10348000082A32D81B79626903F180431269033B31
:10349000284652F823309847E4E7186802F0BAFF4C
:1034A0000546BFE7186802F0B7FF0546BAE741F2E4
:1034B000CE313220FDF7A8FE41F2E1313220FDF796
:1034C000A3FE41F2C8313220FDF79EFE41F2AE313B
:1034D0003220FDF799FE41F2AF313220FDF794FE24
:1034E00041F24E313220FDF78FFE41F24F31322052
:1034F000FDF78AFEC020002070B5154D2C6894F8A9
:103500004830EBB1D4E920126FF000439A4208BF73
:10351000B1F1FF3F14D011F09DFAD4E9202390427D
:1035200099410DD32E6896F8483053B907F0CEF97B
:10353000044611F08FFA074BE4FB0301C6E92001B2
:1035400070BD012007F084FA0028F9D02E68EDE75D
:10355000C020002040420F002DE9F0471A4B93F99C
:103560000090B9F17F0F84B02CD0184C66687F2290
:103570001A703379032B80460F461AD03379062B05
:1035800014BF4FF0010A4FF0030A236803F142050C
:103590000FF01AF8CDE9029A00902B46257B019591
:1035A0003A464146304603F01BF828B904B0BDE85E
:1035B000F0874FF0000AE8E7606804B0BDE8F04724
:1035C00002F082BFFFF766FED0040020C02000207A
:1035D00038B505460C4606F051FD420704D4A378E1
:1035E00003F0E003402B0DD006F048FD830704D420
:1035F000A37803F0E003202B04D0237803F03F03EB
:10360000242B01D9002038BD0EF0E4FF94F90020EE
:103610006378002AA27802F01F0CB4BF4FF49671B1
:103620001E2143EA0C2301FB03F3191AB1F5877F2E
:10363000E8D39842E6D8064923880868A0F879318B
:1036400080F87B212946BDE8384003F089BE00BFE1
:10365000C02000202DE9F047334FD7F8048098F8B8
:10366000063084B0002B4DD03D6895F89530044667
:103670000E4633B90378002B14BF0223012385F8CB
:10368000953098F80430062BDAB23FD0072A0CBFE9
:103690004FF0020A4FF0010A244B93F90090B9F160
:1036A0007F0F3ED07F221A700EF08EFFCDE9029A76
:1036B0000090397B019105F1420332464046214694
:1036C00002F08EFFF0B16378DB0618D5A169022005
:1036D000FFF77EFFE8B13A68002382F8963063690D
:1036E000DBB15978C1F3031182F8971059781B7830
:1036F00001F00F0143EA0123A2F8983003E0786853
:1037000002F0E2FE002004B0BDE8F0874FF0030AAB
:10371000C2E7786802F018FFF4E7FF2382F89730D9
:10372000F1E7FFF7B7FD00BFC0200020D004002064
:1037300010B504468AB00EF0E7FA2378174A03F072
:103740000F03072B107002D001200AB010BD69468C
:10375000204603F05FFA684603F044FB9DF8003012
:10376000002BF1D19DF80130DB07EDD50C4C019910
:1037700023689DF8110093F87E20783316F043FB00
:103780000028E1D020680121A03016F045F8FF2183
:103790006846FFF75FFF0130C0B2D6E7D0040020D3
:1037A000C02000202DE9F04304468BB00EF0ACFAA7
:1037B0002378424A03F00F03082B107004D0012530
:1037C00028460BB0BDE8F0836946204603F0B4F903
:1037D0009DF80050002DF2D19DF8013003F0030355
:1037E000032BECD1364E376897F84D306BB397F812
:1037F0004E80737B6BBB9DF81100019997F87E207A
:1038000007F1780316F0FFFA0028D8D097F848207F
:10381000376897F841904237002A3ED19DF8120050
:10382000029901283B464A4627D016F0ECFA0028B8
:10383000C5D030680121A03015F0EEFF737BABBB23
:1038400021460120FFF77AFCBAE7736893F80580F8
:10385000CFE716F01CFB8146B9F1080F9DF8110067
:10386000019997F87E20CBD007F1780386F80C9069
:1038700016F0C9FAC145C9D0C6E74F7916F0C3FAA8
:103880000028D6D107F0C007402F98D102994046B2
:1038900007F012F90028CCD191E7404607F046F92D
:1038A00000281CBF07464FF00109B7E70FF0C6FB21
:1038B0000EF0ACFA00237373C2E700BFD0040020FF
:1038C000C02000202DE9F04FDFF8DCA09846DAF8A0
:1038D00000309346827C93F84850012A83B0044616
:1038E000894685F001053DD0002637469AF80D201F
:1038F0003AB393F8542052072DD46368B3B1DAF881
:1039000004305B79082B18D01846019306F0F8FEB6
:103910002843C5B2B7B19AF80F20019B6AB316F0DD
:10392000C0FA002307468AF80F300BE0DAF80430BB
:10393000186803F0ABF80028E1D11FB19AF80E1017
:1039400009B300278BF8007089F8006088F80050F0
:1039500003B0BDE8F08F93F84D20002ACDD093F846
:103960004E30CFE78268567906F0C006A6F14006D1
:10397000B6FA86F676093746B8E7A168184607F022
:103980009BF80746DEE7A06806F0BEFF07468AF808
:103990000D000028D5D016F07AFA0828D1D0DAF830
:1039A00004305871CEE700BFC02000202DE9F04F51
:1039B000044687B006290AD8DFE801F0512E0F0926
:1039C00009090400B24D68688379002B71D10FF0AA
:1039D00033F9032007B0BDE8F08F0FF02DF9AC4AA2
:1039E000136893F854108F07F3D050688179002939
:1039F000EFD0A84D95F900107F2900F025820291A3
:103A0000127B01922146FF227F2400924233022240
:103A10002C7002F01DFFDCE79D4DA27C29686868D0
:103A200091F8483090F806A090F80790012A83F0AA
:103A300001035AD0002791F8542012F0040600F038
:103A4000EF8091F84D60002E59D091F84E80B8F17A
:103A5000080F59D191F84100002680466DE08C4D49
:103A6000D5E9003093F8542057071AD5C279002AB7
:103A700000F0DF80626893F85B1016788E4200F0E9
:103A80003C8193F85620012A00F05B8193F84E3078
:103A9000082B03D042799A4200F053810FF0CCF802
:103AA00068688379002B40F0C880C379002B90D1DF
:103AB0008DE72B6893F85420960740F1ED80754A06
:103AC00092F900107F2900F0BF81029121462C7BE2
:103AD0000194FF2400947F2442331470062202F0E4
:103AE000B7FE002309202B7474E7A268577907F00A
:103AF000C007A7F14007B7FA87F77F099BE790F85F
:103B00000580B8F1080F40D04046059306F0F8FD57
:103B1000059B8346002F40F04581296891F8542089
:103B200091F8418002F0040C3E464046BCF1000F83
:103B300041D043EA0B0B5FFA8BF3626891F85BC0EC
:103B400092F800E0E64500F0FF804FF0000B6A6855
:103B50005279082A00F03D8191F84EC0ACEB020288
:103B6000B2FA82F252090592E6B1B9F1000F1DD006
:103B700091F85630012B00F0E48023B9059B5BEAF5
:103B8000030B40F0DE804E4610E0626891F85BC0A7
:103B900092F800E091F84100E64500F0D480B34689
:103BA00080460596002B40F0178100260FF044F860
:103BB0002B6893F8542093073FF40BAF0FF03CF8B9
:103BC000BAF1000F3FF405AF2968A36891F84100EE
:103BD000A27C423116F017F9002840F01981002E1E
:103BE00040F016812B6893F85520023A012A3FF6DF
:103BF000F0AE002F3FF4EDAE264E96F900207F2A5E
:103C000000F0228102922A7B686801922146FE22FE
:103C10007F24009242330122347002F019FED8E66C
:103C200090F80580B8F1080F7FF46EAF91F84180ED
:103C3000C1E78379002B3FF4CAAE2B6893F8542078
:103C4000960744D4D0077FF5C4AE510700F1F38046
:103C5000104B93F900207F2A00F0F68002922A7B15
:103C60000192FF2200927F2018702B68686821461D
:103C70004233002202F0ECFD03206B68DA79002A5F
:103C80007FF4A8AE9B79002B7FF4A4AE9FE600BF23
:103C9000C0200020D0040020D1077FF598AE530744
:103CA00000F1B380694B93F900207F2A00F0CC80AB
:103CB00002922A7B0192FF2200927F201870D5E9A0
:103CC000003021464233062202F0C2FD81E65F4AFF
:103CD00092F900107F2900F0B780029121462C7BD9
:103CE0000194FF2400947F2442331470002202F0D8
:103CF000AFFD012309202B74BFE7567893F85C10C1
:103D00008E427FF4BEAE967893F85D108E427FF4BB
:103D1000B8AED67893F85E108E427FF4B2AE1679C4
:103D200093F85F108E427FF4ACAE517993F8602027
:103D300091427FF4A6AE617C93F85A2091427FF4C1
:103D4000A0AE0A2046E6804692F801E091F85CC0F9
:103D5000E6457FF4FAAE92F802E091F85DC0E645E0
:103D60007FF4F3AE92F803E091F85EC0E6457FF48D
:103D7000ECAE92F804E091F85FC0E6457FF4E5AE62
:103D800092F805C091F8602094457FF4DEAE94F877
:103D900011B091F85A20ABEB0202D2F1000B4BEBC1
:103DA000020BD4E6A1680593404606F085FE29681B
:103DB000059B91F85420064602F0040C91F841004E
:103DC000002E3BD040F00208BCF1000F7FF4B1AEF2
:103DD000F1E600220592C7E6A368A27C423116F004
:103DE00012F8B9F1000F3FF4E0AE2B6893F85630AB
:103DF000012B07D0002B7FF4D8AE059B53EA0B0BA9
:103E00003FF4D3AE00289CD1CFE60EF015FF49E772
:103E10000E4E96F900307F2B16D002932B7BCDE906
:103E20000083D5E9003021467F24012242333470DB
:103E300002F00EFDCDE50EF0FFFE09E78046BCF175
:103E4000000F7FF476AEB6E6FFF724FAD004002028
:103E500008B5054B586802F037FB0DF055FF034BD2
:103E600002461A70012008BDC0200020D0040020A6
:103E70002DE9F843724D0746A868D5F80080002365
:103E8000038089460FF020F8002800F0B180AC686C
:103E9000032F2378064600F0B78023F02F0343EA70
:103EA000491343F0050323702968222363700B6DC7
:103EB0001B6AC4F80F300A6D936AE374180A1B0C6E
:103EC0002075637592F87EC0108ED36ABCF1000F26
:103ED00040F0A280DFF86CC1ACFB00E0ACFB03C398
:103EE000800A9B0AE375C3F30723A0752376D36981
:103EF00041F27070A3F57A7C844540F29880514875
:103F0000A0FB0303C3F38F23002063F307001B0A06
:103F100063F30F20938C63F317401B0A63F31F6056
:103F2000C4F81900D38C63771B0AA377D2F89730B3
:103F3000C4F81F3092F89B3084F823300B6D94F84E
:103F4000242093F8A23022F01F0203F01F03134332
:103F500084F8243006F0B8F894F8243003F01F03F6
:103F600043EA401384F82430AC68D8F87830C4F8B9
:103F70000930B8F87C30A4F80D3098F87E1020464F
:103F800016F0B4F92B6893F8482093F8418003F1B8
:103F90004209A2B393F85420520732D593F84D202A
:103FA0007AB393F84E0006F0C1FD044638B34FF0E3
:103FB0000108A8682368C0F80330A388A0F8073078
:103FC000414616F086F9204BD3F8043173B9052F1A
:103FD00012D12B6821681A6DC2F80A10A188D1810C
:103FE0001B6D83F809803046BDE8F8830EF024FE8F
:103FF000032007F0F5F800263046BDE8F8834C466C
:10400000D7E76B685879CEE723F00F0343F003033B
:1040100023700C236370A8E7DFF830C0ACFB00E02E
:10402000ACFB033CC0F347104FEA5C135AE7084867
:10403000A0FB03039B0903F550639BB264E700BF39
:10404000C02000205917B7D1001000401F85EB5148
:10405000D34D621038B5154C236893F854309B0744
:1040600018D1A568E5B12368FF2093F878110EF008
:104070002DFB28460EF0F0FE236893F87831033BC1
:10408000012B94BF282000200EF08CFF63680722CC
:104090001A7138BD6368186802F0BEF90546E1E799
:1040A00040F21C513220FDF7AFF800BFC0200020C5
:1040B00038B51E4C23680E2093F878110EF006FBDD
:1040C000236893F854309B0724D1A56845B328464C
:1040D0000EF0C2FE236893F87831033B012B94BFA6
:1040E000282000200EF05EFF2368681D93F87851A9
:1040F00006F038FC607348B1033D012D8CBF50259C
:1041000055250DF065FE28460EF08CFF63680822E9
:104110001A7138BD6368186802F07EF90546D5E764
:1041200040F209513220FDF76FF800BFC020002097
:1041300070B50D4DD5E9000302221A7103F036FE69
:1041400000B170BD2E68044606F16C0002F0FCF967
:10415000A6F8794186F87B4186F870402868BDE86A
:10416000704003F077BF00BFC020002010B50A4C9C
:104170000DF0CAFD094A637B10701BB90EF05CFD9F
:10418000032010BD0EF05AFF0DF040FE00236373B4
:104190000EF052FD032010BDC0200020D0040020EE
:1041A00070B52D4C236893F87B2105465F2A93F860
:1041B00079019CBF5109294A00F03F0094BF565C29
:1041C00000260EF0EDFB236893F958000EF0D8FBA3
:1041D000EDB123683246996E01200EF0D5FC2368BC
:1041E00093F89630022B14BFFF20402031460EF08A
:1041F0006DFA236893F8542092070ED193F8953006
:10420000A568A3B12846BDE870400EF025BE324631
:10421000822101200EF0B8FCE1E76368186802F023
:10422000FBF8236893F895300546002BEAD1681D0A
:1042300006F098FB60730028E4D0042E14BF5024CD
:1042400055240DF0C5FD20460EF0ECFE2846BDE8D5
:1042500070400EF001BE00BFC0200020CCA20600BE
:10426000F0B52E4C236893F87B215F2A9EBF51093D
:104270002B4A575C9A6E83B0064688BF0027002AF7
:104280003FD1D3F888000EF053FE256895F85430DE
:104290009A0703D595F89620022A2AD05B0724D4E2
:1042A00063681868CEB902F0F1FB636806461868C7
:1042B00002F0F2FB024605F19A00256895F8963067
:1042C00095F878510095314602F036FD22680023BA
:1042D00082F87871A37303B0F0BD02F0E9FB0146E8
:1042E00005F19A0002F01CFDF0E795F89630012BDD
:1042F000D6D1042F0AD0394600200EF0D1FE256811
:10430000CEE70120FFF74CFF2368BAE795F8593054
:10431000012B0CBF03210421EEE700BFC0200020C9
:10432000CCA2060010B50B4C637B63B9A1680020DA
:10433000FEF704FF23680022A3F8792183F87B218C
:1043400083F8702010BD0EF079FE0DF05FFD0023A4
:104350006373EBE7C020002010B50F4C637B9BB963
:10436000D4E9003000224FF0010C80F804C003F1C2
:104370006C00A3F8792183F87B2102F06DF82068A6
:10438000BDE8104003F066BE0EF058FE0DF03EFD95
:1043900000236373E4E700BFC02000202DE9F04F45
:1043A0000729044687B040680D46904644D100284E
:1043B0005ED0637C012B00F0AB80A74E7368587908
:1043C000082844D004AA0DF10F0106F085FA002850
:1043D00000F069819DF80F0004A917F0D6F8814616
:1043E000D6E9001791F8543013F0030240F08280B0
:1043F000BA715A0763D40023FB71984B1B6823B131
:1044000041462046984738727768636843B13268FE
:10441000617C82F87E10196891679B88A2F87C30D5
:104420003B7A0120002B00F04381A3680BB1072DDC
:104430004DD007B0BDE8F08F874E002800F0868091
:10444000637C7268012B4DD050790828BAD161681D
:10445000607C17F09AF87268616881460532607C6A
:1044600006F070F977680028BAD1F8803872DCE776
:10447000794ED6E9001791F8543003F00302B8F1F1
:10448000000F65D0002A40F0B88013F00403BA7121
:10449000B2D091F84DA0FB799146002BACD0636867
:1044A0008BB9386802F0F2FA0346002840F0A38086
:1044B000BAF1000F00F0F380776853469CE7062DB1
:1044C00091F84DA07DD84AEA0900C3B294E7797902
:1044D0000829AED00028ACD0184606F033FA0123E4
:1044E000F373A6E7437903F0C003402BACD1737B91
:1044F00013BBA9E7062D91F84CA04CD84AEA090A4B
:104500005B0787F806A07FF576AF91F84DA0DAE754
:10451000437903F0C003402B7FF44FAF4E4E737BC3
:10452000002B3FF44BAFB8F1000F05D1336893F87F
:104530007811012900F09D80776815F0A8FC736858
:104540007871587930730123B37339E7814647E7AF
:10455000B2F1000918BF4FF0010913F0040387F806
:10456000069005D02378A3F10103B3FA83F35B0926
:10457000FB7191F89430002B3FF45BAF3368D3F8B4
:104580009000503017F00BF800287FF452AF73689A
:1045900001221A724DE7082D02D90023BB712AE7C8
:1045A00097F806B0B8F1000F2CD16268002A46D007
:1045B0004AEA090A580787F806A07FF51CAF91F868
:1045C0004DA0082D3FF617AFFB79B8F1000F7FF42F
:1045D00064AF6268002A7FF476AF62780193D306F5
:1045E00057D4386802F052FA00283FF461AF019BBB
:1045F000002B3FF45DAF7768FEE691F84CA097F88A
:1046000006B08146BBF1000F2AD06268002ACFD1E4
:10461000386802F03BFA80B9BAF1000F3BD07768F6
:10462000326887F806A092F8543013F004033FF480
:10463000E3AE92F84DA0FB79C7E78246EFE76278D8
:10464000D0061DD4386802F021FA0028E4D0BBF16E
:10465000000FE1D0DA46E2E7C0200020602C002005
:104660005B0787F806B07FF5C6AE91F84DA0FB79E1
:1046700013E706F049F9707300287FF45DAF9DE6FB
:104680000120B87158077FF5B6AE91F84DA0FB79BF
:10469000A4E70123B0E606F04FF88246BFE706F034
:1046A0004BF80346A7E740F6BA313220FCF7ACFDE1
:1046B000F888003818BF0120B7E600BF10B5114CCC
:1046C0000DF022FB104A637B10709BB9D4E90030D7
:1046D00000224FF0010C80F804C003F16C00A3F835
:1046E000792183F87B2101F0B7FE2068BDE81040F6
:1046F00003F0B0BC0EF0A2FC0DF088FB0023637346
:10470000E4E700BFC0200020D004002010B5104C0A
:10471000606801F019FF637B9BB9D4E90030002287
:104720004FF0010C80F804C003F16C00A3F879216C
:1047300083F87B2101F090FE2068BDE8104003F073
:1047400089BC0EF07BFC0DF061FB00236373E4E792
:10475000C020002010B5124C606801F0F5FE0DF08D
:10476000D3FA104A637B10709BB9D4E90030002261
:104770004FF0010C80F804C003F16C00A3F879211C
:1047800083F87B2101F068FE2068BDE8104003F04B
:1047900061BC0EF053FC0DF039FB00236373E4E7BA
:1047A000C0200020D004002010B50DF0ADFA134C4D
:1047B000134B024620681A700021A03015F02CF827
:1047C000637B9BB9D4E9003000224FF0010C80F8E4
:1047D00004C003F16C00A3F8792183F87B2101F078
:1047E0003BFE2068BDE8104003F034BC0EF026FC10
:1047F0000DF00CFB00236373E4E700BFC020002032
:10480000D004002010B5154C606801F05DFE0DF07D
:104810007BFA02462068124B0021A0301A7014F077
:10482000FBFF637B9BB9D4E9003000224FF0010C01
:1048300080F804C003F16C00A3F8792183F87B2190
:1048400001F00AFE2068BDE8104003F003BC0EF042
:10485000F5FB0DF0DBFA00236373E4E7C0200020D2
:10486000D004002010B500210320FFF701FB164CF7
:1048700020B12068032102F073FDA8B9637BDBB986
:10488000D4E9003000224FF0010C80F804C003F19D
:104890006C00A3F8792183F87B2101F0DDFD20680D
:1048A000BDE8104003F0D6BB012108460EF0F8FB2E
:1048B000636809221A7110BD0EF0C0FB0DF0A6FA54
:1048C00000236373DCE700BFC020002010B51D4C3F
:1048D000D4E900030C2201211A7103F0E5FB002149
:1048E0000520FFF7C5FA20B12068062102F038FD47
:1048F000A8B9637BFBB9D4E9003000224FF0010C6A
:1049000080F804C003F16C00A3F8792183F87B21BF
:1049100001F0A2FD2068BDE8104003F09BBB2368B6
:10492000012093F878110EF0BBFB23681B6D012268
:1049300083F8962010BD0EF081FB0DF067FA00237E
:104940006373D8E7C020002070B5234C236893F828
:104950007B215F2A9EBF5109204A565C9A6E88BF10
:10496000002662BBD3F888000EF0E2FA256895F8BD
:1049700054309A0703D595F89620022A17D05B0782
:1049800003D595F89630012B11D06368186802F0B2
:104990008FF8014605F19A0002F0C2F90023216860
:1049A000A373636881F8786106221A7170BD042EC2
:1049B0000AD0314600200EF073FB2568E5E70120A0
:1049C000FFF7EEFB2368CDE795F85930012B0CBFBC
:1049D00003210421EEE700BFC0200020CCA2060086
:1049E00038B5234C6368186801F014FD00283AD0EC
:1049F00063680A2205461A712068002103F054FBFF
:104A000022682B78126D92F8965005EA531505F03E
:104A1000010505202946FFF72BFA48B1206804213B
:104A200002F09EFC20B123681B6D83F8965038BDC0
:104A3000637B8BB9D4E9003000220125057103F1B5
:104A40006C00A3F8792183F87B2101F005FD206833
:104A5000BDE8384003F0FEBA0EF0F0FA0DF0D6F9DA
:104A600000236373E6E740F261513220FCF7CCFB90
:104A7000C020002010B51F4C636888B981B11A7935
:104A8000082A2DD91A790C2A2FD81B79626903F1CB
:104A900080435268093BBDE8104052F82330184764
:104AA000184601F051FD637B9BB9D4E90030002228
:104AB0004FF0010C80F804C003F16C00A3F87921D9
:104AC00083F87B2101F0C8FC2068BDE8104003F0AA
:104AD000C1BA0EF0B3FA0DF099F900236373E4E75D
:104AE00041F290413220FCF78FFB41F2914132209C
:104AF000FCF78AFBC020002038B5174C0521206840
:104B000002F02EFC48B12368012093F878110EF0D2
:104B1000C7FA63680B221A7138BD0546606801F058
:104B200013FD637B8BB9D4E90030002201250571A8
:104B300003F16C00A3F8792183F87B2101F08CFC50
:104B40002068BDE8384003F085BA0EF077FA0DF022
:104B50005DF96573E7E700BFC0200020F0B52A4C7F
:104B6000236893F87B215F2A9EBF5109274A575C2F
:104B70009A6E83B088BF0027002A39D1D3F8880005
:104B80000EF0D6F9256895F854309A0703D595F8B4
:104B90009620022A24D05B0703D595F89630012B86
:104BA0001ED06368186801F071FF636806461868D4
:104BB00001F072FF024605F19A00256895F89630DB
:104BC00095F878510095314602F0B6F80023216837
:104BD000A373636881F8787105221A7103B0F0BD80
:104BE000042F0AD0394600200EF05AFA2568D8E77B
:104BF0000120FFF7D5FA2368C0E795F85930012B5B
:104C00000CBF03210421EEE7C0200020CCA2060047
:104C1000F0B55A4C206883B06C3001F01DFC65681B
:104C200001F0CAFB636828601868002800F09C80C7
:104C300001F0F0FB0546002800F09B80236893F804
:104C4000A630002B48D1D4E9000290F8A4300344E8
:104C500093F87C7180F87871137913B11379012B73
:104C60004BD190F8A520464B134418790DF098FECF
:104C7000236893F8A420134493F87C61022E3AD061
:104C80004DD8012E4ED101F091FB31460DF01EFDA5
:104C900028460EF0E1F8314601200DF097FE012F75
:104CA00031D1E81C05F05EFE607328B140250DF09F
:104CB0008FF828460EF0B6F9D4E900020821002347
:104CC000517121730321D3801372E38180F89530F1
:104CD0002374117103B0F0BD236893F8542093F846
:104CE000A700196DC3F81011024383F85420002265
:104CF00083F8A620A7E70D20C7E7002102F030FBCC
:104D0000A8B12068ADE7681D05F02CFE607300288F
:104D1000D2D0033F012F8CBF50255525C7E7F31E86
:104D2000012BB0D940F605013220FCF76DFA637B08
:104D300093B9D4E9003000220125057103F16C001C
:104D4000A3F8792183F87B2101F086FB206803B06A
:104D5000BDE8F04003F07EB901900EF06FF90DF060
:104D600055F801986073E4E740F252413220FCF7B5
:104D70004BFA40F254413220FCF746FAC0200020A2
:104D8000CCA2060008B50CF0BFFF044B18700DF064
:104D900053FFBDE80840FFF73BBF00BFD004002031
:104DA00010B50C4C0CF0B0FF0B4A637B10702BB9A4
:104DB0000DF042FFBDE81040FFF72ABF0EF03EF9AC
:104DC0000DF024F8002363730DF036FFBDE81040AA
:104DD000FFF71EBFC0200020D004002010B50446FD
:104DE000FEF7D4FA237A032B4AD0012B51D039D8BD
:104DF0002F4C304A216891F8A53091F84B000133CF
:104E0000A2FB03CE0EF4FF7C0CEB5E0CA3EB0C03B9
:104E100040FA03FC1CF0010F13D10133A2FB03CEB7
:104E20002EF0010C0CEB5E0CA3EB0C031841C00739
:104E300007D40133A2FB030222F0010000EB52026F
:104E40009B1ADBB281F8A53091F958000DF098FD5E
:104E50002368002283F89520FFF7DAFEBDE81040B2
:104E6000FEF74ABB023B012B09D8114C236893F88B
:104E7000950088B9FFF7F4F9636805221A7110BD2F
:104E80000B4B1B68986E70B9FFF78AF9237A012BD8
:104E9000ADD1074C2168D7E70120FFF7E1F963683E
:104EA00006221A7110BD4FF415613220FCF7ACF9DF
:104EB000C0200020ABAAAAAA2DE9F047DFF8A882FB
:104EC000D8F8005095F8573086B0ABB1D8F80470D8
:104ED000BB790446A3B12678012E1AD0022E61D0E8
:104EE00056B995F85420910706D0002B40F09180D8
:104EF0003B7A002B40F08D80032006B0BDE8F087A0
:104F0000FA79002AE7D13A7A002AF5D02678012EDC
:104F1000E4D195F878216378022A00F0F48003F058
:104F20001803182BE8D195F854305A0700F1F18096
:104F30008E4B93F900607F2E00F049817F221A701A
:104F4000D8E9003703F142050DF03EFB02960090D0
:104F500098F80C100191002103912B46FF2238464E
:104F6000214601F03DFB0028C6D0A1690120FEF7D3
:104F70002FFB0028C0D0D8F80020012382F89630FB
:104F80006369002B41D05978C1F3031182F897105F
:104F900059781B7801F00F0143EA0123A2F89830F9
:104FA0000220AAE795F854309B07A5D0637803F058
:104FB0001803182BA0D16D4B93F90090B9F17F0F16
:104FC00000F005817F221A700DF0FEFACDF80890EE
:104FD000009098F80C2001920022039205F1420300
:104FE0003846FF22214601F0FBFA002884D0A1694F
:104FF0000120FEF7EDFA00283FF47EAFD8F800203C
:1050000082F896606369002BBDD1FF2382F8973048
:10501000C6E7637813F0100F0CBF012208229A43F1
:10502000C3F300157FF468AFA26800238DF8153034
:105030008DF81630002A00F091800DF117030DF164
:1050400016010DF115022046FEF73CFCD8F80010C1
:105050009DF8153091F84190002B40F0B180A36885
:10506000A27C4231484614F0CEFE70B9D8F8003028
:1050700093F85530023B012B3FF63EAF9DF81630BA
:10508000002B3FF439AF4FF0FE09384A92F9007017
:10509000002D6DD07F2F00F09A80D8F80030D8F81E
:1050A000046003F142057F2313700DF08DFA02971F
:1050B000009098F80C1001912B4600254A46304686
:1050C0000395214601F08CFA00283FF415AFA16941
:1050D0000120FEF77DFA00283FF40EAFD8F800302B
:1050E00083F896506269002A6DD05178C1F303119C
:1050F00083F897105178127801F00F0142EA0122EB
:10510000A3F898204CE703F01903192B7FF4F4AEB1
:1051100009E761680023B1FA81F11A46490920467E
:10512000FDF790FF00283FF4E7AEA3699B781F2BA3
:1051300007D8D8F8003093F84930002B7FF4F8AE48
:10514000DAE603F0E003402B7FF4F2AED8F800304B
:1051500093F84A30002B7FF4EBAECDE68DF81720A4
:105160004FF0FF0991E700BFC0200020D0040020CD
:105170007F2F2CD0D8F804507F2313702B79032B6A
:1051800004D02B79062B14BF01260326D8F8003053
:1051900003F1420A0DF018FACDE90276009021469B
:1051A00098F80C40019453464A46284601F018FAF4
:1051B00000283FF4A1AED8F8040001F085F99BE681
:1051C00049F0020961E7FF2283F89720E8E6FEF73D
:1051D00061F800BF30B505468BB00CF095FD2C781A
:1051E0003D4B024604F00F04284669463B4D1A70B9
:1051F00001F010FD072C2B683DD093F8542012F0DD
:10520000060210D121466846FFF7C8F82B6893F8CC
:105210007831042B1BD8022B54D903246B7BDBB9C8
:1052200020460BB030BD93F8A420134493F87C21A2
:10523000012A4CD0002221466846FFF7AFF82B68C0
:1052400093F87831012B10D0023B022BE5D941F2C3
:1052500049213220FBF7D8FF0DF0F0FE0CF0D6FD0F
:10526000002320466B730BB030BD062C1BD018D921
:105270000DF0E2FCD1E793F87811684601F002FDE9
:10528000002221466846FFF789F82B6893F87831A9
:10529000042BDCD8022B0CD96846FFF70DFE044620
:1052A000BCE7022CE4D821466846FEF77FFB0446A3
:1052B000B4E7012BF0D0022BC9D19DF80030012BAF
:1052C000ABD1E9E7012BD0D0022BA6D0BFE79621C6
:1052D00000200DF06DFCADE7D0040020C0200020C0
:1052E0002DE9F047A84C92B00D4608A901F092FCB8
:1052F000206808A99A3001F047FD23689DF8201026
:1053000093F89620914205D1032D17D09DF82120C6
:10531000160766D4606801F017F90125637B1BB995
:10532000284612B0BDE8F0870DF088FE0CF06EFD47
:1053300000232846637312B0BDE8F08793F89720E6
:10534000FF2AE3D108A82A460721FFF727F860685B
:10535000C38813B9037A002BDDD00A9B00228DF895
:105360001D208DF81E208DF81F20002B4AD00DF136
:105370001F030DF11D020DF11E0108A8FEF7A2FA90
:1053800023689DF81D7093F841509DF820609DF8AA
:105390001E809DF81F3045EA4705012EEDB239D039
:1053A000022E00F0A380002EB4D1216891F8543071
:1053B0009B07B2D09DF821309E0700F1CA80FF25DF
:1053C00063681B7A33B1714B1B681BB10F9808B12E
:1053D00011999847294608A8FEF73CF9451CEDB2FB
:1053E0009CE70D9993F897004A78B0EB121F91D182
:1053F0000978B3F8983002F00F0241EA02229A428B
:1054000088D19FE79DF82060012E98461F464FF0F7
:10541000FF05C5D19DF82100226800F0090CBCF100
:10542000090F92F89A1005D000293FF476AF0007D3
:105430007FF573AF92F85420D4F8049050070BD541
:1054400099F8072042B13A4608A8FDF7FBFD00286D
:1054500040F0E880D4F8049099F80630002B3FF42F
:105460005CAFD4F800A09AF854309A073FF455AFD7
:105470009DF8213013F0020300F0B18057B90A9B68
:105480009DF832209AF841000AF1420114F0BBFC69
:1054900000284ED03E4B93F90090B9F17F0F00F0F9
:1054A0004E81D4F804807F221A7098F80430032BC0
:1054B00000F0F18098F80430062B08BF032623681B
:1054C00003F142070DF080F8CDE9029600902A46DC
:1054D000257B01953B4608A9404601F081F800284C
:1054E0003FF41BAF606800F0EFFF16E7216891F80A
:1054F000542090073FF411AFD4F8049099F80600B7
:1055000000283FF40AAF9DF8210000F00906092E9B
:105510007FF403AF12F0020600F0020A3AD0BAF1AB
:10552000000F00F08880002F40F0E180002B40F059
:10553000D380236893F85530023B012B3FF6EDAE44
:10554000B8F1000F3FF4E9AEFE2108A8FEF704F819
:10555000E3E6002F7FF434AF91F841000A9B9DF8F9
:105560003220423114F04FFC00287FF429AF236829
:1055700093F85530023B012B3FF6CFAEB8F1000F48
:105580003FF4CBAEFE251BE7C02000205C2C0020A2
:10559000D0040020BAF1000F7FD04FB991F841003C
:1055A0000A9B9DF83220423114F02DFC0028C0D017
:1055B000644B93F90090B9F17F0F00F0C080D4F8EC
:1055C00004807F221A7098F80430032B3FF477AFE1
:1055D00098F80430062B14BF012603266FE7594ABA
:1055E00092F900507F2D00F0AA8099F804107F20D6
:1055F000032910706ED099F80430062B08BF0326DB
:105600000CF0E2FFCDE9025600900AF14203257B3F
:105610000195FF2208A9484600F0E2FF00283FF468
:105620007CAE5FE72068A03014F018F900283FF442
:1056300011AF0C2572E6434B93F90080B8F17F0F50
:105640007DD07F22514603201A70FEF711FC23689B
:10565000D4F80490064603F142070CF0B5FFCDF8EC
:10566000088000902A46257B019501253B4608A924
:105670004846039500F0B4FF002E3FF44BAE0028DF
:105680003FF448AE2068A03014F0E8F800283FF45A
:1056900029AF0B2542E6002611E72A4B93F900506B
:1056A0007F2D4CD099F804207F20032A187007D052
:1056B00099F80430062B14BF4FF0010A4FF0030A8B
:1056C00005910CF081FF05990090CDE9025A01F196
:1056D00042039CE71E4693E791F841000A9B9DF820
:1056E0003220423114F08FFB00283FF422AF154BDB
:1056F00093F90080B8F17F0F21D07F220021032091
:105700001A70FEF7B5FB2368D4F80490064603F13F
:1057100042070CF059FFCDF8088000902A46257BFF
:10572000019501253B4608A94846039500F058FF1E
:10573000002E3FF473AF00283FF4EFADA2E7FDF772
:10574000A9FD00BFD004002010B504460CF0DCFA1F
:105750002378094A03F00F03072B107005D1204668
:105760000121BDE81040FFF7BBBD044B586800F0B5
:10577000EBFE012010BD00BFD0040020C02000209F
:1057800010B504460CF0C0FA2378094A03F00F0361
:10579000072B107005D120460321BDE81040FFF70C
:1057A0009FBD044B586800F0CFFE012010BD00BF24
:1057B000D0040020C020002090F83E00003818BF20
:1057C00001207047007A003818BF0120704700BFE1
:1057D000036D10B583B102224272198841814FF6E0
:1057E000FF73FF2204460385064980F8272015F041
:1057F0005AF80023236510BD40F261313220FBF7D7
:1058000003FD00BF312F000038B5012105460020FF
:10581000FCF742F920B3044601F0C8FC02E094F81A
:1058200070301BB194F87030012BF8D13F22002169
:10583000204611F0AFFD002340F201110722A4F829
:105840004C1084F8543084F8A53084F8585084F80B
:105850004B20636684F89430C4F8903084F8A63006
:1058600001210846FCF718F9044618B301F09EFC24
:1058700002E094F870301BB194F87030012BF8D12D
:105880003F220021204611F085FD002340F2011146
:105890000722A4F84C1084F8543084F8A53084F81A
:1058A000585084F84B20636684F89430C4F89030E4
:1058B00084F8A630BDE8384000F06EBDF8B5064665
:1058C00004F086FB1C4F034601210020BB60FCF75F
:1058D000A7F830B34FF4C0720021044611F05AFD0E
:1058E00001210846FCF79CF87F69054680B14FF41A
:1058F000C072002111F04EFDC7B13046FFF784FFA2
:10590000204601F035FC2846BDE8F84001F030BCE7
:1059100067B13046FFF778FF2046BDE8F84001F058
:1059200027BC40F691013220FBF76EFC40F69B014C
:105930003220FBF769FC00BFC0200020014B024A67
:105940005A617047C0200020245E000003683BB10C
:10595000064A03F16C011360536951601B681847D4
:1059600010B540F67F113220FBF74EFCC02000201E
:1059700010B5104C606800F0E7FD637B9BB9D4E97B
:10598000003000224FF0010C80F804C003F16C00DD
:10599000A3F8792183F87B2100F05EFD2068BDE843
:1059A000104002F057BB0DF049FB0CF02FFA00231A
:1059B0006373E4E7C020002080F84B10704700BFFD
:1059C00011F001031DBF012380F87C310222012266
:1059D00011F0020F05D003444FF0020C83F87CC194
:1059E00013464A0703D51844042380F87C317047D6
:1059F00080F85710704700BF10B5044690F840007B
:105A0000A0F1020CBCF1010F07D910B1023818BF88
:105A10000120BDE8104004F019BD0029F6D102F0C4
:105A2000FD02101E18BF0120194614F026FA08289E
:105A300001D0012010BD94F840000028E6D1E8E72D
:105A400090F8400000F0FD00003818BF012004F07D
:105A5000FDBC00BF38B590F8A63003BB044603F088
:105A6000FF0094F85430013B012B00D938BD0429C4
:105A70000D46FBD1D4F810319BB9236DB3B106F0BC
:105A8000E5FB216D04F1E80001F0C4FC06F0E4FB45
:105A900084F8A750FF2384F8A630012038BD0020E9
:105AA00038BD4FF420613220FBF7AEFB40F60121F8
:105AB0003220FBF7A9FB00BF80F84010704700BF01
:105AC00038B500F14201044690F8400000F0FD00B6
:105AD000003818BF012084F8410004F09DFC94F8C0
